{
  "contractName": "RaffleOrganizer",
  "abi": [
    {
      "constant": true,
      "inputs": [
        {
          "internalType": "uint256",
          "name": "",
          "type": "uint256"
        }
      ],
      "name": "creatorAddresses",
      "outputs": [
        {
          "internalType": "address",
          "name": "",
          "type": "address"
        }
      ],
      "payable": false,
      "stateMutability": "view",
      "type": "function"
    },
    {
      "constant": true,
      "inputs": [
        {
          "internalType": "address",
          "name": "",
          "type": "address"
        }
      ],
      "name": "raffles",
      "outputs": [
        {
          "internalType": "string",
          "name": "Name",
          "type": "string"
        },
        {
          "internalType": "string",
          "name": "description",
          "type": "string"
        }
      ],
      "payable": false,
      "stateMutability": "view",
      "type": "function"
    },
    {
      "constant": false,
      "inputs": [
        {
          "internalType": "string",
          "name": "_name",
          "type": "string"
        },
        {
          "internalType": "string",
          "name": "_description",
          "type": "string"
        }
      ],
      "name": "addRaffle",
      "outputs": [],
      "payable": false,
      "stateMutability": "nonpayable",
      "type": "function"
    },
    {
      "constant": true,
      "inputs": [
        {
          "internalType": "address",
          "name": "_ownerAddress",
          "type": "address"
        }
      ],
      "name": "getRaffle",
      "outputs": [
        {
          "internalType": "string",
          "name": "",
          "type": "string"
        },
        {
          "internalType": "string",
          "name": "",
          "type": "string"
        }
      ],
      "payable": false,
      "stateMutability": "view",
      "type": "function"
    },
    {
      "constant": true,
      "inputs": [],
      "name": "getAllRaffle",
      "outputs": [
        {
          "internalType": "address[]",
          "name": "",
          "type": "address[]"
        },
        {
          "components": [
            {
              "internalType": "string",
              "name": "Name",
              "type": "string"
            },
            {
              "internalType": "string",
              "name": "description",
              "type": "string"
            }
          ],
          "internalType": "struct RaffleOrganizer.Raffle[]",
          "name": "",
          "type": "tuple[]"
        }
      ],
      "payable": false,
      "stateMutability": "view",
      "type": "function"
    }
  ],
  "bytecode": "0x608060405234801561001057600080fd5b50610f49806100206000396000f3fe608060405234801561001057600080fd5b50600436106100575760003560e01c8063570310451461005c57806367c748f51461008d5780637c0cc8b3146100be57806381673934146100ee578063b190e17d1461010d575b600080fd5b610076600480360361007191908101906109bc565b610129565b604051610084929190610cd8565b60405180910390f35b6100a760048036036100a291908101906109bc565b6102ef565b6040516100b5929190610d0f565b60405180910390f35b6100d860048036036100d39190810190610a51565b610443565b6040516100e59190610c86565b60405180910390f35b6100f661047f565b604051610104929190610ca1565b60405180910390f35b610127600480360361012291908101906109e5565b610785565b005b6060806000808473ffffffffffffffffffffffffffffffffffffffff1673ffffffffffffffffffffffffffffffffffffffff1681526020019081526020016000206000016000808573ffffffffffffffffffffffffffffffffffffffff1673ffffffffffffffffffffffffffffffffffffffff168152602001908152602001600020600101818054600181600116156101000203166002900480601f0160208091040260200160405190810160405280929190818152602001828054600181600116156101000203166002900480156102435780601f1061021857610100808354040283529160200191610243565b820191906000526020600020905b81548152906001019060200180831161022657829003601f168201915b50505050509150808054600181600116156101000203166002900480601f0160208091040260200160405190810160405280929190818152602001828054600181600116156101000203166002900480156102df5780601f106102b4576101008083540402835291602001916102df565b820191906000526020600020905b8154815290600101906020018083116102c257829003601f168201915b5050505050905091509150915091565b6000602052806000526040600020600091509050806000018054600181600116156101000203166002900480601f01602080910402602001604051908101604052809291908181526020018280546001816001161561010002031660029004801561039b5780601f106103705761010080835404028352916020019161039b565b820191906000526020600020905b81548152906001019060200180831161037e57829003601f168201915b505050505090806001018054600181600116156101000203166002900480601f0160208091040260200160405190810160405280929190818152602001828054600181600116156101000203166002900480156104395780601f1061040e57610100808354040283529160200191610439565b820191906000526020600020905b81548152906001019060200180831161041c57829003601f168201915b5050505050905082565b6001818154811061045057fe5b906000526020600020016000915054906101000a900473ffffffffffffffffffffffffffffffffffffffff1681565b60608060606001805490506040519080825280602002602001820160405280156104b85781602001602082028038833980820191505090505b50905060606001805490506040519080825280602002602001820160405280156104fc57816020015b6104e961087f565b8152602001906001900390816104e15790505b50905060008090505b600180549050811015610778576001818154811061051f57fe5b9060005260206000200160009054906101000a900473ffffffffffffffffffffffffffffffffffffffff1683828151811061055657fe5b602002602001019073ffffffffffffffffffffffffffffffffffffffff16908173ffffffffffffffffffffffffffffffffffffffff1681525050600080600183815481106105a057fe5b9060005260206000200160009054906101000a900473ffffffffffffffffffffffffffffffffffffffff1673ffffffffffffffffffffffffffffffffffffffff1673ffffffffffffffffffffffffffffffffffffffff168152602001908152602001600020604051806040016040529081600082018054600181600116156101000203166002900480601f0160208091040260200160405190810160405280929190818152602001828054600181600116156101000203166002900480156106a95780601f1061067e576101008083540402835291602001916106a9565b820191906000526020600020905b81548152906001019060200180831161068c57829003601f168201915b50505050508152602001600182018054600181600116156101000203166002900480601f01602080910402602001604051908101604052809291908181526020018280546001816001161561010002031660029004801561074b5780601f106107205761010080835404028352916020019161074b565b820191906000526020600020905b81548152906001019060200180831161072e57829003601f168201915b50505050508152505082828151811061076057fe5b60200260200101819052508080600101915050610505565b5081819350935050509091565b6040518060400160405280838152602001828152506000803373ffffffffffffffffffffffffffffffffffffffff1673ffffffffffffffffffffffffffffffffffffffff16815260200190815260200160002060008201518160000190805190602001906107f4929190610899565b506020820151816001019080519060200190610811929190610899565b5090505060013390806001815401808255809150509060018203906000526020600020016000909192909190916101000a81548173ffffffffffffffffffffffffffffffffffffffff021916908373ffffffffffffffffffffffffffffffffffffffff160217905550505050565b604051806040016040528060608152602001606081525090565b828054600181600116156101000203166002900490600052602060002090601f016020900481019282601f106108da57805160ff1916838001178555610908565b82800160010185558215610908579182015b828111156109075782518255916020019190600101906108ec565b5b5090506109159190610919565b5090565b61093b91905b8082111561093757600081600090555060010161091f565b5090565b90565b60008135905061094d81610ed8565b92915050565b600082601f83011261096457600080fd5b813561097761097282610d73565b610d46565b9150808252602083016020830185838301111561099357600080fd5b61099e838284610e85565b50505092915050565b6000813590506109b681610eef565b92915050565b6000602082840312156109ce57600080fd5b60006109dc8482850161093e565b91505092915050565b600080604083850312156109f857600080fd5b600083013567ffffffffffffffff811115610a1257600080fd5b610a1e85828601610953565b925050602083013567ffffffffffffffff811115610a3b57600080fd5b610a4785828601610953565b9150509250929050565b600060208284031215610a6357600080fd5b6000610a71848285016109a7565b91505092915050565b6000610a868383610aa6565b60208301905092915050565b6000610a9e8383610c42565b905092915050565b610aaf81610e49565b82525050565b610abe81610e49565b82525050565b6000610acf82610dbf565b610ad98185610e05565b9350610ae483610d9f565b8060005b83811015610b15578151610afc8882610a7a565b9750610b0783610deb565b925050600181019050610ae8565b5085935050505092915050565b6000610b2d82610dca565b610b378185610e16565b935083602082028501610b4985610daf565b8060005b85811015610b855784840389528151610b668582610a92565b9450610b7183610df8565b925060208a01995050600181019050610b4d565b50829750879550505050505092915050565b6000610ba282610de0565b610bac8185610e38565b9350610bbc818560208601610e94565b610bc581610ec7565b840191505092915050565b6000610bdb82610dd5565b610be58185610e27565b9350610bf5818560208601610e94565b610bfe81610ec7565b840191505092915050565b6000610c1482610dd5565b610c1e8185610e38565b9350610c2e818560208601610e94565b610c3781610ec7565b840191505092915050565b60006040830160008301518482036000860152610c5f8282610bd0565b91505060208301518482036020860152610c798282610bd0565b9150508091505092915050565b6000602082019050610c9b6000830184610ab5565b92915050565b60006040820190508181036000830152610cbb8185610ac4565b90508181036020830152610ccf8184610b22565b90509392505050565b60006040820190508181036000830152610cf28185610b97565b90508181036020830152610d068184610b97565b90509392505050565b60006040820190508181036000830152610d298185610c09565b90508181036020830152610d3d8184610c09565b90509392505050565b6000604051905081810181811067ffffffffffffffff82111715610d6957600080fd5b8060405250919050565b600067ffffffffffffffff821115610d8a57600080fd5b601f19601f8301169050602081019050919050565b6000819050602082019050919050565b6000819050602082019050919050565b600081519050919050565b600081519050919050565b600081519050919050565b600081519050919050565b6000602082019050919050565b6000602082019050919050565b600082825260208201905092915050565b600082825260208201905092915050565b600082825260208201905092915050565b600082825260208201905092915050565b6000610e5482610e5b565b9050919050565b600073ffffffffffffffffffffffffffffffffffffffff82169050919050565b6000819050919050565b82818337600083830152505050565b60005b83811015610eb2578082015181840152602081019050610e97565b83811115610ec1576000848401525b50505050565b6000601f19601f8301169050919050565b610ee181610e49565b8114610eec57600080fd5b50565b610ef881610e7b565b8114610f0357600080fd5b5056fea365627a7a72315820d66ec8e824f88f061b54785a92c53abe6691d65524c7ceb4b592bef31d3927a56c6578706572696d656e74616cf564736f6c63430005100040",
  "source": "// SPDX-License-Identifier: MIT\npragma solidity >=0.4.21 <8.10.0;\npragma experimental ABIEncoderV2;\n\ncontract RaffleOrganizer {\n  // Think of storing this data to offchain\n  struct Raffle \n  {\n    string Name;\n    string description;\n  }\n\n  mapping(address => Raffle) public raffles;\n  address[] public creatorAddresses;\n\n  function addRaffle(string memory _name, string memory _description) public {\n    raffles[msg.sender] = Raffle(_name, _description);\n    creatorAddresses.push(msg.sender);\n  }\n\n  function getRaffle(address _ownerAddress) public view returns(string memory, string memory) {\n    return (raffles[_ownerAddress].Name, raffles[_ownerAddress].description);\n  }\n  // work arround for returning mapping\n  function getAllRaffle() public view returns (address[] memory, Raffle[] memory) {\n\n    address[] memory raffleCreatorAddresses = new address[](creatorAddresses.length);\n    Raffle[] memory raffleInfo = new Raffle[](creatorAddresses.length); \n    for(uint i = 0; i < creatorAddresses.length; i++) {\n      raffleCreatorAddresses[i] = creatorAddresses[i]; \n      raffleInfo[i] = raffles[creatorAddresses[i]]; \n    }\n    return (raffleCreatorAddresses, raffleInfo);\n\n  }\n\n}\n\n/*\n\n\n\n*/\n",
  "sourcePath": "/home/laxman/Desktop/proj/builder_eth/Raffle-app/contracts/RaffleOrganizer.sol",
  "compiler": {
    "name": "solc",
    "version": "0.5.16+commit.9c3226ce.Emscripten.clang"
  },
  "schemaVersion": "3.4.7",
  "updatedAt": "2022-06-01T19:31:34.594Z",
  "networkType": "ethereum",
  "devdoc": {
    "methods": {}
  },
  "userdoc": {
    "methods": {}
  }
}